{
  "_format": "hh-sol-artifact-1",
  "contractName": "Charity",
  "sourceName": "contracts/CIP.sol",
  "abi": [
    {
      "inputs": [
        {
          "internalType": "uint256",
          "name": "reqId",
          "type": "uint256"
        }
      ],
      "name": "approveRequest",
      "outputs": [],
      "stateMutability": "nonpayable",
      "type": "function"
    },
    {
      "inputs": [
        {
          "internalType": "string",
          "name": "d",
          "type": "string"
        },
        {
          "internalType": "string",
          "name": "t",
          "type": "string"
        }
      ],
      "name": "createProject",
      "outputs": [],
      "stateMutability": "nonpayable",
      "type": "function"
    },
    {
      "inputs": [
        {
          "internalType": "string",
          "name": "r",
          "type": "string"
        },
        {
          "internalType": "uint256",
          "name": "amount",
          "type": "uint256"
        },
        {
          "internalType": "uint256",
          "name": "projId",
          "type": "uint256"
        },
        {
          "internalType": "string",
          "name": "phno",
          "type": "string"
        }
      ],
      "name": "createRequest",
      "outputs": [],
      "stateMutability": "nonpayable",
      "type": "function"
    },
    {
      "inputs": [
        {
          "internalType": "uint256",
          "name": "",
          "type": "uint256"
        }
      ],
      "name": "delRequests",
      "outputs": [
        {
          "internalType": "string",
          "name": "reason",
          "type": "string"
        },
        {
          "internalType": "address payable",
          "name": "recepient",
          "type": "address"
        },
        {
          "internalType": "string",
          "name": "requestor",
          "type": "string"
        },
        {
          "internalType": "uint256",
          "name": "amount",
          "type": "uint256"
        },
        {
          "internalType": "uint256",
          "name": "reqId",
          "type": "uint256"
        },
        {
          "internalType": "string",
          "name": "reqLink",
          "type": "string"
        },
        {
          "internalType": "string",
          "name": "projTitle",
          "type": "string"
        },
        {
          "internalType": "uint256",
          "name": "projId",
          "type": "uint256"
        },
        {
          "internalType": "string",
          "name": "phno",
          "type": "string"
        }
      ],
      "stateMutability": "view",
      "type": "function"
    },
    {
      "inputs": [
        {
          "internalType": "uint256",
          "name": "projId",
          "type": "uint256"
        }
      ],
      "name": "donateMoney",
      "outputs": [],
      "stateMutability": "payable",
      "type": "function"
    },
    {
      "inputs": [
        {
          "internalType": "uint256",
          "name": "_reqNo",
          "type": "uint256"
        }
      ],
      "name": "donorVoteRequest",
      "outputs": [],
      "stateMutability": "nonpayable",
      "type": "function"
    },
    {
      "inputs": [],
      "name": "getDelRequests",
      "outputs": [
        {
          "components": [
            {
              "internalType": "string",
              "name": "reason",
              "type": "string"
            },
            {
              "internalType": "address payable",
              "name": "recepient",
              "type": "address"
            },
            {
              "internalType": "string",
              "name": "requestor",
              "type": "string"
            },
            {
              "internalType": "uint256",
              "name": "amount",
              "type": "uint256"
            },
            {
              "internalType": "uint256",
              "name": "reqId",
              "type": "uint256"
            },
            {
              "internalType": "string",
              "name": "reqLink",
              "type": "string"
            },
            {
              "internalType": "string",
              "name": "projTitle",
              "type": "string"
            },
            {
              "internalType": "uint256",
              "name": "projId",
              "type": "uint256"
            },
            {
              "internalType": "string",
              "name": "phno",
              "type": "string"
            }
          ],
          "internalType": "struct Charity.Request[]",
          "name": "",
          "type": "tuple[]"
        }
      ],
      "stateMutability": "view",
      "type": "function"
    },
    {
      "inputs": [],
      "name": "getProjects",
      "outputs": [
        {
          "components": [
            {
              "internalType": "string",
              "name": "title",
              "type": "string"
            },
            {
              "internalType": "string",
              "name": "description",
              "type": "string"
            },
            {
              "internalType": "uint256",
              "name": "amt",
              "type": "uint256"
            },
            {
              "internalType": "uint256",
              "name": "donorCount",
              "type": "uint256"
            }
          ],
          "internalType": "struct Charity.ProjDetails[]",
          "name": "",
          "type": "tuple[]"
        }
      ],
      "stateMutability": "view",
      "type": "function"
    },
    {
      "inputs": [],
      "name": "getRequests",
      "outputs": [
        {
          "components": [
            {
              "internalType": "string",
              "name": "reason",
              "type": "string"
            },
            {
              "internalType": "address payable",
              "name": "recepient",
              "type": "address"
            },
            {
              "internalType": "string",
              "name": "requestor",
              "type": "string"
            },
            {
              "internalType": "uint256",
              "name": "amount",
              "type": "uint256"
            },
            {
              "internalType": "uint256",
              "name": "reqId",
              "type": "uint256"
            },
            {
              "internalType": "string",
              "name": "reqLink",
              "type": "string"
            },
            {
              "internalType": "string",
              "name": "projTitle",
              "type": "string"
            },
            {
              "internalType": "uint256",
              "name": "projId",
              "type": "uint256"
            },
            {
              "internalType": "string",
              "name": "phno",
              "type": "string"
            }
          ],
          "internalType": "struct Charity.Request[]",
          "name": "",
          "type": "tuple[]"
        }
      ],
      "stateMutability": "view",
      "type": "function"
    },
    {
      "inputs": [
        {
          "internalType": "address",
          "name": "_wallet",
          "type": "address"
        }
      ],
      "name": "getUser",
      "outputs": [
        {
          "components": [
            {
              "internalType": "address",
              "name": "wallet",
              "type": "address"
            },
            {
              "internalType": "string",
              "name": "name",
              "type": "string"
            },
            {
              "internalType": "string",
              "name": "username",
              "type": "string"
            },
            {
              "internalType": "string",
              "name": "usertype",
              "type": "string"
            }
          ],
          "internalType": "struct Charity.User",
          "name": "",
          "type": "tuple"
        }
      ],
      "stateMutability": "view",
      "type": "function"
    },
    {
      "inputs": [],
      "name": "getValidatorSecret",
      "outputs": [
        {
          "internalType": "string",
          "name": "",
          "type": "string"
        }
      ],
      "stateMutability": "pure",
      "type": "function"
    },
    {
      "inputs": [],
      "name": "getVoteRequests",
      "outputs": [
        {
          "components": [
            {
              "internalType": "string",
              "name": "reason",
              "type": "string"
            },
            {
              "internalType": "string",
              "name": "recepientLink",
              "type": "string"
            },
            {
              "internalType": "uint256",
              "name": "amount",
              "type": "uint256"
            },
            {
              "internalType": "string",
              "name": "projTitle",
              "type": "string"
            },
            {
              "internalType": "bool",
              "name": "verified",
              "type": "bool"
            },
            {
              "internalType": "bool",
              "name": "approved",
              "type": "bool"
            }
          ],
          "internalType": "struct Charity.voteRequestDetail[]",
          "name": "",
          "type": "tuple[]"
        }
      ],
      "stateMutability": "view",
      "type": "function"
    },
    {
      "inputs": [
        {
          "internalType": "uint256",
          "name": "_reqNo",
          "type": "uint256"
        }
      ],
      "name": "makePayment",
      "outputs": [],
      "stateMutability": "nonpayable",
      "type": "function"
    },
    {
      "inputs": [],
      "name": "numProjs",
      "outputs": [
        {
          "internalType": "uint256",
          "name": "",
          "type": "uint256"
        }
      ],
      "stateMutability": "view",
      "type": "function"
    },
    {
      "inputs": [],
      "name": "numVoteRequests",
      "outputs": [
        {
          "internalType": "uint256",
          "name": "",
          "type": "uint256"
        }
      ],
      "stateMutability": "view",
      "type": "function"
    },
    {
      "inputs": [
        {
          "internalType": "uint256",
          "name": "",
          "type": "uint256"
        }
      ],
      "name": "projDetails",
      "outputs": [
        {
          "internalType": "string",
          "name": "title",
          "type": "string"
        },
        {
          "internalType": "string",
          "name": "description",
          "type": "string"
        },
        {
          "internalType": "uint256",
          "name": "amt",
          "type": "uint256"
        },
        {
          "internalType": "uint256",
          "name": "donorCount",
          "type": "uint256"
        }
      ],
      "stateMutability": "view",
      "type": "function"
    },
    {
      "inputs": [
        {
          "internalType": "uint256",
          "name": "",
          "type": "uint256"
        }
      ],
      "name": "projs",
      "outputs": [
        {
          "internalType": "string",
          "name": "title",
          "type": "string"
        },
        {
          "internalType": "string",
          "name": "description",
          "type": "string"
        },
        {
          "internalType": "address",
          "name": "creator",
          "type": "address"
        },
        {
          "internalType": "uint256",
          "name": "amt",
          "type": "uint256"
        },
        {
          "internalType": "uint256",
          "name": "projectId",
          "type": "uint256"
        }
      ],
      "stateMutability": "view",
      "type": "function"
    },
    {
      "inputs": [
        {
          "internalType": "string",
          "name": "_username",
          "type": "string"
        },
        {
          "internalType": "string",
          "name": "_name",
          "type": "string"
        },
        {
          "internalType": "string",
          "name": "_usertype",
          "type": "string"
        }
      ],
      "name": "register",
      "outputs": [],
      "stateMutability": "nonpayable",
      "type": "function"
    },
    {
      "inputs": [
        {
          "internalType": "string",
          "name": "_username",
          "type": "string"
        },
        {
          "internalType": "string",
          "name": "_name",
          "type": "string"
        },
        {
          "internalType": "string",
          "name": "_usertype",
          "type": "string"
        },
        {
          "internalType": "string",
          "name": "link",
          "type": "string"
        }
      ],
      "name": "registerB",
      "outputs": [],
      "stateMutability": "nonpayable",
      "type": "function"
    },
    {
      "inputs": [
        {
          "internalType": "uint256",
          "name": "reqId",
          "type": "uint256"
        }
      ],
      "name": "rejectRequest",
      "outputs": [],
      "stateMutability": "nonpayable",
      "type": "function"
    },
    {
      "inputs": [
        {
          "internalType": "uint256",
          "name": "",
          "type": "uint256"
        }
      ],
      "name": "requests",
      "outputs": [
        {
          "internalType": "string",
          "name": "reason",
          "type": "string"
        },
        {
          "internalType": "address payable",
          "name": "recepient",
          "type": "address"
        },
        {
          "internalType": "string",
          "name": "requestor",
          "type": "string"
        },
        {
          "internalType": "uint256",
          "name": "amount",
          "type": "uint256"
        },
        {
          "internalType": "uint256",
          "name": "reqId",
          "type": "uint256"
        },
        {
          "internalType": "string",
          "name": "reqLink",
          "type": "string"
        },
        {
          "internalType": "string",
          "name": "projTitle",
          "type": "string"
        },
        {
          "internalType": "uint256",
          "name": "projId",
          "type": "uint256"
        },
        {
          "internalType": "string",
          "name": "phno",
          "type": "string"
        }
      ],
      "stateMutability": "view",
      "type": "function"
    },
    {
      "inputs": [
        {
          "internalType": "address",
          "name": "",
          "type": "address"
        }
      ],
      "name": "usernames",
      "outputs": [
        {
          "internalType": "string",
          "name": "",
          "type": "string"
        }
      ],
      "stateMutability": "view",
      "type": "function"
    },
    {
      "inputs": [
        {
          "internalType": "string",
          "name": "",
          "type": "string"
        }
      ],
      "name": "users",
      "outputs": [
        {
          "internalType": "address",
          "name": "wallet",
          "type": "address"
        },
        {
          "internalType": "string",
          "name": "name",
          "type": "string"
        },
        {
          "internalType": "string",
          "name": "username",
          "type": "string"
        },
        {
          "internalType": "string",
          "name": "usertype",
          "type": "string"
        }
      ],
      "stateMutability": "view",
      "type": "function"
    },
    {
      "inputs": [
        {
          "internalType": "uint256",
          "name": "",
          "type": "uint256"
        }
      ],
      "name": "voteRequestDetails",
      "outputs": [
        {
          "internalType": "string",
          "name": "reason",
          "type": "string"
        },
        {
          "internalType": "string",
          "name": "recepientLink",
          "type": "string"
        },
        {
          "internalType": "uint256",
          "name": "amount",
          "type": "uint256"
        },
        {
          "internalType": "string",
          "name": "projTitle",
          "type": "string"
        },
        {
          "internalType": "bool",
          "name": "verified",
          "type": "bool"
        },
        {
          "internalType": "bool",
          "name": "approved",
          "type": "bool"
        }
      ],
      "stateMutability": "view",
      "type": "function"
    },
    {
      "inputs": [
        {
          "internalType": "uint256",
          "name": "",
          "type": "uint256"
        }
      ],
      "name": "voteRequests",
      "outputs": [
        {
          "internalType": "string",
          "name": "reason",
          "type": "string"
        },
        {
          "internalType": "address payable",
          "name": "recepient",
          "type": "address"
        },
        {
          "internalType": "string",
          "name": "recepientLink",
          "type": "string"
        },
        {
          "internalType": "uint256",
          "name": "amount",
          "type": "uint256"
        },
        {
          "internalType": "string",
          "name": "projTitle",
          "type": "string"
        },
        {
          "internalType": "uint256",
          "name": "projId",
          "type": "uint256"
        },
        {
          "internalType": "uint256",
          "name": "noOfVoters",
          "type": "uint256"
        }
      ],
      "stateMutability": "view",
      "type": "function"
    }
  ],
  "bytecode": "0x608060405234801561001057600080fd5b50615da280620000216000396000f3fe6080604052600436106101665760003560e01c80637ccf3887116100d1578063d7d1bbdb1161008a578063e411122911610064578063e411122914610559578063ee91877c14610599578063f97cbe23146105d6578063fdbb33c21461060157610166565b8063d7d1bbdb146104dc578063d817b07514610505578063dcc601281461052e57610166565b80637ccf3887146103c457806381d12c58146103ef5780638813ce1214610434578063b78c89ff1461045f578063bb32661314610488578063d1d396db146104b157610166565b80635114cb52116101235780635114cb52146102705780635e94cdae14610299578063689e1c03146102db5780636bd062041461031b5780636f77926b1461034457806370ef09bd1461038157610166565b80630565e94a1461016b5780632d7788db1461018757806330f6a57d146101b05780633ba30237146101f1578063472159af1461021c5780634cd08d0314610247575b600080fd5b61018560048036038101906101809190614b19565b610646565b005b34801561019357600080fd5b506101ae60048036038101906101a99190614b19565b6108cd565b005b3480156101bc57600080fd5b506101d760048036038101906101d29190614b19565b610b26565b6040516101e8959493929190615442565b60405180910390f35b3480156101fd57600080fd5b50610206610c8c565b60405161021391906152ca565b60405180910390f35b34801561022857600080fd5b50610231610ee1565b60405161023e919061560e565b60405180910390f35b34801561025357600080fd5b5061026e6004803603810190610269919061492c565b610ee7565b005b34801561027c57600080fd5b5061029760048036038101906102929190614b19565b611172565b005b3480156102a557600080fd5b506102c060048036038101906102bb9190614b19565b6113f1565b6040516102d2969594939291906154a3565b60405180910390f35b3480156102e757600080fd5b5061030260048036038101906102fd919061487f565b6115ef565b604051610312949392919061522c565b60405180910390f35b34801561032757600080fd5b50610342600480360381019061033d91906148c0565b6117ed565b005b34801561035057600080fd5b5061036b60048036038101906103669190614856565b611a8a565b60405161037891906155ec565b60405180910390f35b34801561038d57600080fd5b506103a860048036038101906103a39190614b19565b611d0b565b6040516103bb979695949392919061530e565b60405180910390f35b3480156103d057600080fd5b506103d9611f05565b6040516103e6919061560e565b60405180910390f35b3480156103fb57600080fd5b5061041660048036038101906104119190614b19565b611f0b565b60405161042b99989796959493929190615392565b60405180910390f35b34801561044057600080fd5b50610449612231565b60405161045691906152a8565b60405180910390f35b34801561046b57600080fd5b50610486600480360381019061048191906149c3565b6125df565b005b34801561049457600080fd5b506104af60048036038101906104aa9190614a86565b612972565b005b3480156104bd57600080fd5b506104c6612dd6565b6040516104d391906152a8565b60405180910390f35b3480156104e857600080fd5b5061050360048036038101906104fe9190614b19565b613184565b005b34801561051157600080fd5b5061052c60048036038101906105279190614b19565b6138d5565b005b34801561053a57600080fd5b50610543613b58565b6040516105509190615286565b60405180910390f35b34801561056557600080fd5b50610580600480360381019061057b9190614b19565b613cef565b6040516105909493929190615519565b60405180910390f35b3480156105a557600080fd5b506105c060048036038101906105bb9190614856565b613e3f565b6040516105cd91906152ec565b60405180910390f35b3480156105e257600080fd5b506105eb613edf565b6040516105f891906152ec565b60405180910390f35b34801561060d57600080fd5b5061062860048036038101906106239190614b19565b613f1c565b60405161063d99989796959493929190615392565b60405180910390f35b60405160200161065590615217565b6040516020818303038152906040528051906020012060016000803373ffffffffffffffffffffffffffffffffffffffff1673ffffffffffffffffffffffffffffffffffffffff1681526020019081526020016000206040516106b891906151d6565b90815260200160405180910390206003016040516020016106d991906151d6565b60405160208183030381529060405280519060200120146106f957600080fd5b60036000828152602001908152602001600020600301339080600181540180825580915050600190039060005260206000200160009091909190916101000a81548173ffffffffffffffffffffffffffffffffffffffff021916908373ffffffffffffffffffffffffffffffffffffffff160217905550346003600083815260200190815260200160002060060160003373ffffffffffffffffffffffffffffffffffffffff1673ffffffffffffffffffffffffffffffffffffffff16815260200190815260200160002060008282546107d39190615777565b92505081905550346003600083815260200190815260200160002060040160008282546108009190615777565b925050819055503460058281548110610842577f4e487b7100000000000000000000000000000000000000000000000000000000600052603260045260246000fd5b906000526020600020906004020160020160008282546108629190615777565b92505081905550600581815481106108a3577f4e487b7100000000000000000000000000000000000000000000000000000000600052603260045260246000fd5b906000526020600020906004020160030160008154809291906108c590615afc565b919050555050565b6040516020016108dc906151ed565b6040516020818303038152906040528051906020012060016000803373ffffffffffffffffffffffffffffffffffffffff1673ffffffffffffffffffffffffffffffffffffffff16815260200190815260200160002060405161093f91906151d6565b908152602001604051809103902060030160405160200161096091906151d6565b604051602081830303815290604052805190602001201461098057600080fd5b6007600682815481106109bc577f4e487b7100000000000000000000000000000000000000000000000000000000600052603260045260246000fd5b906000526020600020906009020190806001815401808255809150506001900390600052602060002090600902016000909190919091506000820181600001908054610a0790615a99565b610a129291906144ff565b506001820160009054906101000a900473ffffffffffffffffffffffffffffffffffffffff168160010160006101000a81548173ffffffffffffffffffffffffffffffffffffffff021916908373ffffffffffffffffffffffffffffffffffffffff1602179055506002820181600201908054610a8e90615a99565b610a999291906144ff565b5060038201548160030155600482015481600401556005820181600501908054610ac290615a99565b610acd9291906144ff565b506006820181600601908054610ae290615a99565b610aed9291906144ff565b50600782015481600701556008820181600801908054610b0c90615a99565b610b179291906144ff565b505050610b2381614242565b50565b6003602052806000526040600020600091509050806000018054610b4990615a99565b80601f0160208091040260200160405190810160405280929190818152602001828054610b7590615a99565b8015610bc25780601f10610b9757610100808354040283529160200191610bc2565b820191906000526020600020905b815481529060010190602001808311610ba557829003601f168201915b505050505090806001018054610bd790615a99565b80601f0160208091040260200160405190810160405280929190818152602001828054610c0390615a99565b8015610c505780601f10610c2557610100808354040283529160200191610c50565b820191906000526020600020905b815481529060010190602001808311610c3357829003601f168201915b5050505050908060020160009054906101000a900473ffffffffffffffffffffffffffffffffffffffff16908060040154908060050154905085565b6060600a805480602002602001604051908101604052809291908181526020016000905b82821015610ed857838290600052602060002090600502016040518060c0016040529081600082018054610ce390615a99565b80601f0160208091040260200160405190810160405280929190818152602001828054610d0f90615a99565b8015610d5c5780601f10610d3157610100808354040283529160200191610d5c565b820191906000526020600020905b815481529060010190602001808311610d3f57829003601f168201915b50505050508152602001600182018054610d7590615a99565b80601f0160208091040260200160405190810160405280929190818152602001828054610da190615a99565b8015610dee5780601f10610dc357610100808354040283529160200191610dee565b820191906000526020600020905b815481529060010190602001808311610dd157829003601f168201915b5050505050815260200160028201548152602001600382018054610e1190615a99565b80601f0160208091040260200160405190810160405280929190818152602001828054610e3d90615a99565b8015610e8a5780601f10610e5f57610100808354040283529160200191610e8a565b820191906000526020600020905b815481529060010190602001808311610e6d57829003601f168201915b505050505081526020016004820160009054906101000a900460ff161515151581526020016004820160019054906101000a900460ff16151515158152505081526020019060010190610cb0565b50505050905090565b60045481565b60008060003373ffffffffffffffffffffffffffffffffffffffff1673ffffffffffffffffffffffffffffffffffffffff1681526020019081526020016000208054610f3290615a99565b905014610f74576040517f08c379a0000000000000000000000000000000000000000000000000000000008152600401610f6b906155ac565b60405180910390fd5b600073ffffffffffffffffffffffffffffffffffffffff16600184604051610f9c91906151bf565b908152602001604051809103902060000160009054906101000a900473ffffffffffffffffffffffffffffffffffffffff1673ffffffffffffffffffffffffffffffffffffffff1614611024576040517f08c379a000000000000000000000000000000000000000000000000000000000815260040161101b9061558c565b60405180910390fd5b60405180608001604052803373ffffffffffffffffffffffffffffffffffffffff1681526020018381526020018481526020018281525060018460405161106b91906151bf565b908152602001604051809103902060008201518160000160006101000a81548173ffffffffffffffffffffffffffffffffffffffff021916908373ffffffffffffffffffffffffffffffffffffffff16021790555060208201518160010190805190602001906110dc92919061458c565b5060408201518160020190805190602001906110f992919061458c565b50606082015181600301908051906020019061111692919061458c565b50905050826000803373ffffffffffffffffffffffffffffffffffffffff1673ffffffffffffffffffffffffffffffffffffffff168152602001908152602001600020908051906020019061116c92919061458c565b50505050565b604051602001611181906151ed565b6040516020818303038152906040528051906020012060016000803373ffffffffffffffffffffffffffffffffffffffff1673ffffffffffffffffffffffffffffffffffffffff1681526020019081526020016000206040516111e491906151d6565b908152602001604051809103902060030160405160200161120591906151d6565b604051602081830303815290604052805190602001201461122557600080fd5b60006008600083815260200190815260200160002090506001600a8381548110611278577f4e487b7100000000000000000000000000000000000000000000000000000000600052603260045260246000fd5b906000526020600020906005020160040160006101000a81548160ff02191690831515021790555060026003600083600501548152602001908152602001600020600301805490506112ca91906157cd565b816006015411156113ed576003600082600501548152602001908152602001600020600401548160030154116113ec5760006012600a61130a9190615851565b90506001600a8481548110611348577f4e487b7100000000000000000000000000000000000000000000000000000000600052603260045260246000fd5b906000526020600020906005020160040160016101000a81548160ff0219169083151502179055508160010160009054906101000a900473ffffffffffffffffffffffffffffffffffffffff1673ffffffffffffffffffffffffffffffffffffffff166108fc8284600301546113be919061596f565b9081150290604051600060405180830381858888f193505050501580156113e9573d6000803e3d6000fd5b50505b5b5050565b600a818154811061140157600080fd5b906000526020600020906005020160009150905080600001805461142490615a99565b80601f016020809104026020016040519081016040528092919081815260200182805461145090615a99565b801561149d5780601f106114725761010080835404028352916020019161149d565b820191906000526020600020905b81548152906001019060200180831161148057829003601f168201915b5050505050908060010180546114b290615a99565b80601f01602080910402602001604051908101604052809291908181526020018280546114de90615a99565b801561152b5780601f106115005761010080835404028352916020019161152b565b820191906000526020600020905b81548152906001019060200180831161150e57829003601f168201915b50505050509080600201549080600301805461154690615a99565b80601f016020809104026020016040519081016040528092919081815260200182805461157290615a99565b80156115bf5780601f10611594576101008083540402835291602001916115bf565b820191906000526020600020905b8154815290600101906020018083116115a257829003601f168201915b5050505050908060040160009054906101000a900460ff16908060040160019054906101000a900460ff16905086565b6001818051602081018201805184825260208301602085012081835280955050505050506000915090508060000160009054906101000a900473ffffffffffffffffffffffffffffffffffffffff169080600101805461164e90615a99565b80601f016020809104026020016040519081016040528092919081815260200182805461167a90615a99565b80156116c75780601f1061169c576101008083540402835291602001916116c7565b820191906000526020600020905b8154815290600101906020018083116116aa57829003601f168201915b5050505050908060020180546116dc90615a99565b80601f016020809104026020016040519081016040528092919081815260200182805461170890615a99565b80156117555780601f1061172a57610100808354040283529160200191611755565b820191906000526020600020905b81548152906001019060200180831161173857829003601f168201915b50505050509080600301805461176a90615a99565b80601f016020809104026020016040519081016040528092919081815260200182805461179690615a99565b80156117e35780601f106117b8576101008083540402835291602001916117e3565b820191906000526020600020905b8154815290600101906020018083116117c657829003601f168201915b5050505050905084565b6040516020016117fc90615202565b6040516020818303038152906040528051906020012060016000803373ffffffffffffffffffffffffffffffffffffffff1673ffffffffffffffffffffffffffffffffffffffff16815260200190815260200160002060405161185f91906151d6565b908152602001604051809103902060030160405160200161188091906151d6565b60405160208183030381529060405280519060200120146118a057600080fd5b60006003600060045481526020019081526020016000209050600460008154809291906118cc90615afc565b9190505550818160000190805190602001906118e992919061458c565b508281600101908051906020019061190292919061458c565b50338160020160006101000a81548173ffffffffffffffffffffffffffffffffffffffff021916908373ffffffffffffffffffffffffffffffffffffffff160217905550600067ffffffffffffffff811115611987577f4e487b7100000000000000000000000000000000000000000000000000000000600052604160045260246000fd5b6040519080825280602002602001820160405280156119b55781602001602082028036833780820191505090505b508160030190805190602001906119cd929190614612565b506000816004018190555043816005018190555060006040518060800160405280848152602001858152602001600081526020016000815250905060058190806001815401808255809150506001900390600052602060002090600402016000909190919091506000820151816000019080519060200190611a5092919061458c565b506020820151816001019080519060200190611a6d92919061458c565b506040820151816002015560608201518160030155505050505050565b611a9261469c565b60016000808473ffffffffffffffffffffffffffffffffffffffff1673ffffffffffffffffffffffffffffffffffffffff168152602001908152602001600020604051611adf91906151d6565b90815260200160405180910390206040518060800160405290816000820160009054906101000a900473ffffffffffffffffffffffffffffffffffffffff1673ffffffffffffffffffffffffffffffffffffffff1673ffffffffffffffffffffffffffffffffffffffff168152602001600182018054611b5e90615a99565b80601f0160208091040260200160405190810160405280929190818152602001828054611b8a90615a99565b8015611bd75780601f10611bac57610100808354040283529160200191611bd7565b820191906000526020600020905b815481529060010190602001808311611bba57829003601f168201915b50505050508152602001600282018054611bf090615a99565b80601f0160208091040260200160405190810160405280929190818152602001828054611c1c90615a99565b8015611c695780601f10611c3e57610100808354040283529160200191611c69565b820191906000526020600020905b815481529060010190602001808311611c4c57829003601f168201915b50505050508152602001600382018054611c8290615a99565b80601f0160208091040260200160405190810160405280929190818152602001828054611cae90615a99565b8015611cfb5780601f10611cd057610100808354040283529160200191611cfb565b820191906000526020600020905b815481529060010190602001808311611cde57829003601f168201915b5050505050815250509050919050565b6008602052806000526040600020600091509050806000018054611d2e90615a99565b80601f0160208091040260200160405190810160405280929190818152602001828054611d5a90615a99565b8015611da75780601f10611d7c57610100808354040283529160200191611da7565b820191906000526020600020905b815481529060010190602001808311611d8a57829003601f168201915b5050505050908060010160009054906101000a900473ffffffffffffffffffffffffffffffffffffffff1690806002018054611de290615a99565b80601f0160208091040260200160405190810160405280929190818152602001828054611e0e90615a99565b8015611e5b5780601f10611e3057610100808354040283529160200191611e5b565b820191906000526020600020905b815481529060010190602001808311611e3e57829003601f168201915b505050505090806003015490806004018054611e7690615a99565b80601f0160208091040260200160405190810160405280929190818152602001828054611ea290615a99565b8015611eef5780601f10611ec457610100808354040283529160200191611eef565b820191906000526020600020905b815481529060010190602001808311611ed257829003601f168201915b5050505050908060050154908060060154905087565b60095481565b60068181548110611f1b57600080fd5b9060005260206000209060090201600091509050806000018054611f3e90615a99565b80601f0160208091040260200160405190810160405280929190818152602001828054611f6a90615a99565b8015611fb75780601f10611f8c57610100808354040283529160200191611fb7565b820191906000526020600020905b815481529060010190602001808311611f9a57829003601f168201915b5050505050908060010160009054906101000a900473ffffffffffffffffffffffffffffffffffffffff1690806002018054611ff290615a99565b80601f016020809104026020016040519081016040528092919081815260200182805461201e90615a99565b801561206b5780601f106120405761010080835404028352916020019161206b565b820191906000526020600020905b81548152906001019060200180831161204e57829003601f168201915b50505050509080600301549080600401549080600501805461208c90615a99565b80601f01602080910402602001604051908101604052809291908181526020018280546120b890615a99565b80156121055780601f106120da57610100808354040283529160200191612105565b820191906000526020600020905b8154815290600101906020018083116120e857829003601f168201915b50505050509080600601805461211a90615a99565b80601f016020809104026020016040519081016040528092919081815260200182805461214690615a99565b80156121935780601f1061216857610100808354040283529160200191612193565b820191906000526020600020905b81548152906001019060200180831161217657829003601f168201915b5050505050908060070154908060080180546121ae90615a99565b80601f01602080910402602001604051908101604052809291908181526020018280546121da90615a99565b80156122275780601f106121fc57610100808354040283529160200191612227565b820191906000526020600020905b81548152906001019060200180831161220a57829003601f168201915b5050505050905089565b60606006805480602002602001604051908101604052809291908181526020016000905b828210156125d657838290600052602060002090600902016040518061012001604052908160008201805461228990615a99565b80601f01602080910402602001604051908101604052809291908181526020018280546122b590615a99565b80156123025780601f106122d757610100808354040283529160200191612302565b820191906000526020600020905b8154815290600101906020018083116122e557829003601f168201915b505050505081526020016001820160009054906101000a900473ffffffffffffffffffffffffffffffffffffffff1673ffffffffffffffffffffffffffffffffffffffff1673ffffffffffffffffffffffffffffffffffffffff16815260200160028201805461237190615a99565b80601f016020809104026020016040519081016040528092919081815260200182805461239d90615a99565b80156123ea5780601f106123bf576101008083540402835291602001916123ea565b820191906000526020600020905b8154815290600101906020018083116123cd57829003601f168201915b50505050508152602001600382015481526020016004820154815260200160058201805461241790615a99565b80601f016020809104026020016040519081016040528092919081815260200182805461244390615a99565b80156124905780601f1061246557610100808354040283529160200191612490565b820191906000526020600020905b81548152906001019060200180831161247357829003601f168201915b505050505081526020016006820180546124a990615a99565b80601f01602080910402602001604051908101604052809291908181526020018280546124d590615a99565b80156125225780601f106124f757610100808354040283529160200191612522565b820191906000526020600020905b81548152906001019060200180831161250557829003601f168201915b505050505081526020016007820154815260200160088201805461254590615a99565b80601f016020809104026020016040519081016040528092919081815260200182805461257190615a99565b80156125be5780601f10612593576101008083540402835291602001916125be565b820191906000526020600020905b8154815290600101906020018083116125a157829003601f168201915b50505050508152505081526020019060010190612255565b50505050905090565b60008060003373ffffffffffffffffffffffffffffffffffffffff1673ffffffffffffffffffffffffffffffffffffffff168152602001908152602001600020805461262a90615a99565b90501461266c576040517f08c379a0000000000000000000000000000000000000000000000000000000008152600401612663906155ac565b60405180910390fd5b600073ffffffffffffffffffffffffffffffffffffffff1660018560405161269491906151bf565b908152602001604051809103902060000160009054906101000a900473ffffffffffffffffffffffffffffffffffffffff1673ffffffffffffffffffffffffffffffffffffffff161461271c576040517f08c379a00000000000000000000000000000000000000000000000000000000081526004016127139061558c565b60405180910390fd5b60405180608001604052803373ffffffffffffffffffffffffffffffffffffffff1681526020018481526020018581526020018381525060018560405161276391906151bf565b908152602001604051809103902060008201518160000160006101000a81548173ffffffffffffffffffffffffffffffffffffffff021916908373ffffffffffffffffffffffffffffffffffffffff16021790555060208201518160010190805190602001906127d492919061458c565b5060408201518160020190805190602001906127f192919061458c565b50606082015181600301908051906020019061280e92919061458c565b50905050836000803373ffffffffffffffffffffffffffffffffffffffff1673ffffffffffffffffffffffffffffffffffffffff168152602001908152602001600020908051906020019061286492919061458c565b5060405160200161287490615202565b6040516020818303038152906040528051906020012060016000803373ffffffffffffffffffffffffffffffffffffffff1673ffffffffffffffffffffffffffffffffffffffff1681526020019081526020016000206040516128d791906151d6565b90815260200160405180910390206003016040516020016128f891906151d6565b604051602081830303815290604052805190602001201461291857600080fd5b80600260003373ffffffffffffffffffffffffffffffffffffffff1673ffffffffffffffffffffffffffffffffffffffff168152602001908152602001600020908051906020019061296b92919061458c565b5050505050565b60405160200161298190615202565b6040516020818303038152906040528051906020012060016000803373ffffffffffffffffffffffffffffffffffffffff1673ffffffffffffffffffffffffffffffffffffffff1681526020019081526020016000206040516129e491906151d6565b9081526020016040518091039020600301604051602001612a0591906151d6565b6040516020818303038152906040528051906020012014612a2557600080fd5b60006040518061012001604052808681526020013373ffffffffffffffffffffffffffffffffffffffff1681526020016000803373ffffffffffffffffffffffffffffffffffffffff1673ffffffffffffffffffffffffffffffffffffffff1681526020019081526020016000208054612a9e90615a99565b80601f0160208091040260200160405190810160405280929190818152602001828054612aca90615a99565b8015612b175780601f10612aec57610100808354040283529160200191612b17565b820191906000526020600020905b815481529060010190602001808311612afa57829003601f168201915b50505050508152602001858152602001438152602001600260003373ffffffffffffffffffffffffffffffffffffffff1673ffffffffffffffffffffffffffffffffffffffff1681526020019081526020016000208054612b7790615a99565b80601f0160208091040260200160405190810160405280929190818152602001828054612ba390615a99565b8015612bf05780601f10612bc557610100808354040283529160200191612bf0565b820191906000526020600020905b815481529060010190602001808311612bd357829003601f168201915b50505050508152602001600360008681526020019081526020016000206000018054612c1b90615a99565b80601f0160208091040260200160405190810160405280929190818152602001828054612c4790615a99565b8015612c945780601f10612c6957610100808354040283529160200191612c94565b820191906000526020600020905b815481529060010190602001808311612c7757829003601f168201915b5050505050815260200184815260200183815250905060068190806001815401808255809150506001900390600052602060002090600902016000909190919091506000820151816000019080519060200190612cf292919061458c565b5060208201518160010160006101000a81548173ffffffffffffffffffffffffffffffffffffffff021916908373ffffffffffffffffffffffffffffffffffffffff1602179055506040820151816002019080519060200190612d5692919061458c565b50606082015181600301556080820151816004015560a0820151816005019080519060200190612d8792919061458c565b5060c0820151816006019080519060200190612da492919061458c565b5060e08201518160070155610100820151816008019080519060200190612dcc92919061458c565b5050505050505050565b60606007805480602002602001604051908101604052809291908181526020016000905b8282101561317b578382906000526020600020906009020160405180610120016040529081600082018054612e2e90615a99565b80601f0160208091040260200160405190810160405280929190818152602001828054612e5a90615a99565b8015612ea75780601f10612e7c57610100808354040283529160200191612ea7565b820191906000526020600020905b815481529060010190602001808311612e8a57829003601f168201915b505050505081526020016001820160009054906101000a900473ffffffffffffffffffffffffffffffffffffffff1673ffffffffffffffffffffffffffffffffffffffff1673ffffffffffffffffffffffffffffffffffffffff168152602001600282018054612f1690615a99565b80601f0160208091040260200160405190810160405280929190818152602001828054612f4290615a99565b8015612f8f5780601f10612f6457610100808354040283529160200191612f8f565b820191906000526020600020905b815481529060010190602001808311612f7257829003601f168201915b505050505081526020016003820154815260200160048201548152602001600582018054612fbc90615a99565b80601f0160208091040260200160405190810160405280929190818152602001828054612fe890615a99565b80156130355780601f1061300a57610100808354040283529160200191613035565b820191906000526020600020905b81548152906001019060200180831161301857829003601f168201915b5050505050815260200160068201805461304e90615a99565b80601f016020809104026020016040519081016040528092919081815260200182805461307a90615a99565b80156130c75780601f1061309c576101008083540402835291602001916130c7565b820191906000526020600020905b8154815290600101906020018083116130aa57829003601f168201915b50505050508152602001600782015481526020016008820180546130ea90615a99565b80601f016020809104026020016040519081016040528092919081815260200182805461311690615a99565b80156131635780601f1061313857610100808354040283529160200191613163565b820191906000526020600020905b81548152906001019060200180831161314657829003601f168201915b50505050508152505081526020019060010190612dfa565b50505050905090565b604051602001613193906151ed565b6040516020818303038152906040528051906020012060016000803373ffffffffffffffffffffffffffffffffffffffff1673ffffffffffffffffffffffffffffffffffffffff1681526020019081526020016000206040516131f691906151d6565b908152602001604051809103902060030160405160200161321791906151d6565b604051602081830303815290604052805190602001201461323757600080fd5b600060086000600954815260200190815260200160002090506009600081548092919061326390615afc565b9190505550600682815481106132a2577f4e487b7100000000000000000000000000000000000000000000000000000000600052603260045260246000fd5b9060005260206000209060090201600001816000019080546132c390615a99565b6132ce9291906146da565b5060068281548110613309577f4e487b7100000000000000000000000000000000000000000000000000000000600052603260045260246000fd5b906000526020600020906009020160010160009054906101000a900473ffffffffffffffffffffffffffffffffffffffff168160010160006101000a81548173ffffffffffffffffffffffffffffffffffffffff021916908373ffffffffffffffffffffffffffffffffffffffff160217905550600682815481106133b7577f4e487b7100000000000000000000000000000000000000000000000000000000600052603260045260246000fd5b9060005260206000209060090201600501816002019080546133d890615a99565b6133e39291906146da565b506006828154811061341e577f4e487b7100000000000000000000000000000000000000000000000000000000600052603260045260246000fd5b906000526020600020906009020160030154816003018190555060068281548110613472577f4e487b7100000000000000000000000000000000000000000000000000000000600052603260045260246000fd5b90600052602060002090600902016006018160040190805461349390615a99565b61349e9291906146da565b50600682815481106134d9577f4e487b7100000000000000000000000000000000000000000000000000000000600052603260045260246000fd5b90600052602060002090600902016007015481600501819055506000816006018190555060006040518060c0016040528060068581548110613544577f4e487b7100000000000000000000000000000000000000000000000000000000600052603260045260246000fd5b9060005260206000209060090201600001805461356090615a99565b80601f016020809104026020016040519081016040528092919081815260200182805461358c90615a99565b80156135d95780601f106135ae576101008083540402835291602001916135d9565b820191906000526020600020905b8154815290600101906020018083116135bc57829003601f168201915b505050505081526020016006858154811061361d577f4e487b7100000000000000000000000000000000000000000000000000000000600052603260045260246000fd5b9060005260206000209060090201600501805461363990615a99565b80601f016020809104026020016040519081016040528092919081815260200182805461366590615a99565b80156136b25780601f10613687576101008083540402835291602001916136b2565b820191906000526020600020905b81548152906001019060200180831161369557829003601f168201915b50505050508152602001600685815481106136f6577f4e487b7100000000000000000000000000000000000000000000000000000000600052603260045260246000fd5b906000526020600020906009020160030154815260200160068581548110613747577f4e487b7100000000000000000000000000000000000000000000000000000000600052603260045260246000fd5b9060005260206000209060090201600601805461376390615a99565b80601f016020809104026020016040519081016040528092919081815260200182805461378f90615a99565b80156137dc5780601f106137b1576101008083540402835291602001916137dc565b820191906000526020600020905b8154815290600101906020018083116137bf57829003601f168201915b50505050508152602001600015158152602001600015158152509050600a819080600181540180825580915050600190039060005260206000209060050201600090919091909150600082015181600001908051906020019061384092919061458c565b50602082015181600101908051906020019061385d92919061458c565b5060408201518160020155606082015181600301908051906020019061388492919061458c565b5060808201518160040160006101000a81548160ff02191690831515021790555060a08201518160040160016101000a81548160ff02191690831515021790555050506138d083614242565b505050565b6040516020016138e490615217565b6040516020818303038152906040528051906020012060016000803373ffffffffffffffffffffffffffffffffffffffff1673ffffffffffffffffffffffffffffffffffffffff16815260200190815260200160002060405161394791906151d6565b908152602001604051809103902060030160405160200161396891906151d6565b604051602081830303815290604052805190602001201461398857600080fd5b6000600360006008600085815260200190815260200160002060050154815260200190815260200160002060060160003373ffffffffffffffffffffffffffffffffffffffff1673ffffffffffffffffffffffffffffffffffffffff1681526020019081526020016000205411613a34576040517f08c379a0000000000000000000000000000000000000000000000000000000008152600401613a2b906155cc565b60405180910390fd5b6000600860008381526020019081526020016000209050600015158160070160003373ffffffffffffffffffffffffffffffffffffffff1673ffffffffffffffffffffffffffffffffffffffff16815260200190815260200160002060009054906101000a900460ff16151514613ae0576040517f08c379a0000000000000000000000000000000000000000000000000000000008152600401613ad79061556c565b60405180910390fd5b60018160070160003373ffffffffffffffffffffffffffffffffffffffff1673ffffffffffffffffffffffffffffffffffffffff16815260200190815260200160002060006101000a81548160ff021916908315150217905550806006016000815480929190613b4f90615afc565b91905055505050565b60606005805480602002602001604051908101604052809291908181526020016000905b82821015613ce65783829060005260206000209060040201604051806080016040529081600082018054613baf90615a99565b80601f0160208091040260200160405190810160405280929190818152602001828054613bdb90615a99565b8015613c285780601f10613bfd57610100808354040283529160200191613c28565b820191906000526020600020905b815481529060010190602001808311613c0b57829003601f168201915b50505050508152602001600182018054613c4190615a99565b80601f0160208091040260200160405190810160405280929190818152602001828054613c6d90615a99565b8015613cba5780601f10613c8f57610100808354040283529160200191613cba565b820191906000526020600020905b815481529060010190602001808311613c9d57829003601f168201915b505050505081526020016002820154815260200160038201548152505081526020019060010190613b7c565b50505050905090565b60058181548110613cff57600080fd5b9060005260206000209060040201600091509050806000018054613d2290615a99565b80601f0160208091040260200160405190810160405280929190818152602001828054613d4e90615a99565b8015613d9b5780601f10613d7057610100808354040283529160200191613d9b565b820191906000526020600020905b815481529060010190602001808311613d7e57829003601f168201915b505050505090806001018054613db090615a99565b80601f0160208091040260200160405190810160405280929190818152602001828054613ddc90615a99565b8015613e295780601f10613dfe57610100808354040283529160200191613e29565b820191906000526020600020905b815481529060010190602001808311613e0c57829003601f168201915b5050505050908060020154908060030154905084565b60006020528060005260406000206000915090508054613e5e90615a99565b80601f0160208091040260200160405190810160405280929190818152602001828054613e8a90615a99565b8015613ed75780601f10613eac57610100808354040283529160200191613ed7565b820191906000526020600020905b815481529060010190602001808311613eba57829003601f168201915b505050505081565b60606040518060400160405280600481526020017f4155435a00000000000000000000000000000000000000000000000000000000815250905090565b60078181548110613f2c57600080fd5b9060005260206000209060090201600091509050806000018054613f4f90615a99565b80601f0160208091040260200160405190810160405280929190818152602001828054613f7b90615a99565b8015613fc85780601f10613f9d57610100808354040283529160200191613fc8565b820191906000526020600020905b815481529060010190602001808311613fab57829003601f168201915b5050505050908060010160009054906101000a900473ffffffffffffffffffffffffffffffffffffffff169080600201805461400390615a99565b80601f016020809104026020016040519081016040528092919081815260200182805461402f90615a99565b801561407c5780601f106140515761010080835404028352916020019161407c565b820191906000526020600020905b81548152906001019060200180831161405f57829003601f168201915b50505050509080600301549080600401549080600501805461409d90615a99565b80601f01602080910402602001604051908101604052809291908181526020018280546140c990615a99565b80156141165780601f106140eb57610100808354040283529160200191614116565b820191906000526020600020905b8154815290600101906020018083116140f957829003601f168201915b50505050509080600601805461412b90615a99565b80601f016020809104026020016040519081016040528092919081815260200182805461415790615a99565b80156141a45780601f10614179576101008083540402835291602001916141a4565b820191906000526020600020905b81548152906001019060200180831161418757829003601f168201915b5050505050908060070154908060080180546141bf90615a99565b80601f01602080910402602001604051908101604052809291908181526020018280546141eb90615a99565b80156142385780601f1061420d57610100808354040283529160200191614238565b820191906000526020600020905b81548152906001019060200180831161421b57829003601f168201915b5050505050905089565b600680549050811061425357600080fd5b6006600160068054905061426791906159c9565b8154811061429e577f4e487b7100000000000000000000000000000000000000000000000000000000600052603260045260246000fd5b9060005260206000209060090201600682815481106142e6577f4e487b7100000000000000000000000000000000000000000000000000000000600052603260045260246000fd5b9060005260206000209060090201600082018160000190805461430890615a99565b6143139291906144ff565b506001820160009054906101000a900473ffffffffffffffffffffffffffffffffffffffff168160010160006101000a81548173ffffffffffffffffffffffffffffffffffffffff021916908373ffffffffffffffffffffffffffffffffffffffff160217905550600282018160020190805461438f90615a99565b61439a9291906144ff565b50600382015481600301556004820154816004015560058201816005019080546143c390615a99565b6143ce9291906144ff565b5060068201816006019080546143e390615a99565b6143ee9291906144ff565b5060078201548160070155600882018160080190805461440d90615a99565b6144189291906144ff565b509050506006805480614454577f4e487b7100000000000000000000000000000000000000000000000000000000600052603160045260246000fd5b6001900381819060005260206000209060090201600080820160006144799190614767565b6001820160006101000a81549073ffffffffffffffffffffffffffffffffffffffff02191690556002820160006144b09190614767565b600382016000905560048201600090556005820160006144d09190614767565b6006820160006144e09190614767565b60078201600090556008820160006144f89190614767565b5050905550565b82805461450b90615a99565b90600052602060002090601f01602090048101928261452d576000855561457b565b82601f1061453e578054855561457b565b8280016001018555821561457b57600052602060002091601f016020900482015b8281111561457a57825482559160010191906001019061455f565b5b50905061458891906147a7565b5090565b82805461459890615a99565b90600052602060002090601f0160209004810192826145ba5760008555614601565b82601f106145d357805160ff1916838001178555614601565b82800160010185558215614601579182015b828111156146005782518255916020019190600101906145e5565b5b50905061460e91906147a7565b5090565b82805482825590600052602060002090810192821561468b579160200282015b8281111561468a5782518260006101000a81548173ffffffffffffffffffffffffffffffffffffffff021916908373ffffffffffffffffffffffffffffffffffffffff16021790555091602001919060010190614632565b5b50905061469891906147a7565b5090565b6040518060800160405280600073ffffffffffffffffffffffffffffffffffffffff1681526020016060815260200160608152602001606081525090565b8280546146e690615a99565b90600052602060002090601f0160209004810192826147085760008555614756565b82601f106147195780548555614756565b8280016001018555821561475657600052602060002091601f016020900482015b8281111561475557825482559160010191906001019061473a565b5b50905061476391906147a7565b5090565b50805461477390615a99565b6000825580601f1061478557506147a4565b601f0160209004906000526020600020908101906147a391906147a7565b5b50565b5b808211156147c05760008160009055506001016147a8565b5090565b60006147d76147d28461564e565b615629565b9050828152602081018484840111156147ef57600080fd5b6147fa848285615a57565b509392505050565b60008135905061481181615d3e565b92915050565b600082601f83011261482857600080fd5b81356148388482602086016147c4565b91505092915050565b60008135905061485081615d55565b92915050565b60006020828403121561486857600080fd5b600061487684828501614802565b91505092915050565b60006020828403121561489157600080fd5b600082013567ffffffffffffffff8111156148ab57600080fd5b6148b784828501614817565b91505092915050565b600080604083850312156148d357600080fd5b600083013567ffffffffffffffff8111156148ed57600080fd5b6148f985828601614817565b925050602083013567ffffffffffffffff81111561491657600080fd5b61492285828601614817565b9150509250929050565b60008060006060848603121561494157600080fd5b600084013567ffffffffffffffff81111561495b57600080fd5b61496786828701614817565b935050602084013567ffffffffffffffff81111561498457600080fd5b61499086828701614817565b925050604084013567ffffffffffffffff8111156149ad57600080fd5b6149b986828701614817565b9150509250925092565b600080600080608085870312156149d957600080fd5b600085013567ffffffffffffffff8111156149f357600080fd5b6149ff87828801614817565b945050602085013567ffffffffffffffff811115614a1c57600080fd5b614a2887828801614817565b935050604085013567ffffffffffffffff811115614a4557600080fd5b614a5187828801614817565b925050606085013567ffffffffffffffff811115614a6e57600080fd5b614a7a87828801614817565b91505092959194509250565b60008060008060808587031215614a9c57600080fd5b600085013567ffffffffffffffff811115614ab657600080fd5b614ac287828801614817565b9450506020614ad387828801614841565b9350506040614ae487828801614841565b925050606085013567ffffffffffffffff811115614b0157600080fd5b614b0d87828801614817565b91505092959194509250565b600060208284031215614b2b57600080fd5b6000614b3984828501614841565b91505092915050565b6000614b4e8383614f4e565b905092915050565b6000614b628383614fb8565b905092915050565b6000614b76838361510a565b905092915050565b614b8781615a0f565b82525050565b614b9681615a0f565b82525050565b614ba5816159fd565b82525050565b614bb4816159fd565b82525050565b6000614bc5826156c4565b614bcf8185615717565b935083602082028501614be18561567f565b8060005b85811015614c1d5784840389528151614bfe8582614b42565b9450614c09836156f0565b925060208a01995050600181019050614be5565b50829750879550505050505092915050565b6000614c3a826156cf565b614c448185615728565b935083602082028501614c568561568f565b8060005b85811015614c925784840389528151614c738582614b56565b9450614c7e836156fd565b925060208a01995050600181019050614c5a565b50829750879550505050505092915050565b6000614caf826156da565b614cb98185615739565b935083602082028501614ccb8561569f565b8060005b85811015614d075784840389528151614ce88582614b6a565b9450614cf38361570a565b925060208a01995050600181019050614ccf565b50829750879550505050505092915050565b614d2281615a21565b82525050565b614d3181615a21565b82525050565b6000614d42826156e5565b614d4c818561574a565b9350614d5c818560208601615a66565b614d6581615c01565b840191505092915050565b6000614d7b826156e5565b614d85818561575b565b9350614d95818560208601615a66565b614d9e81615c01565b840191505092915050565b6000614db4826156e5565b614dbe818561576c565b9350614dce818560208601615a66565b80840191505092915050565b60008154614de781615a99565b614df1818661576c565b94506001821660008114614e0c5760018114614e1d57614e50565b60ff19831686528186019350614e50565b614e26856156af565b60005b83811015614e4857815481890152600182019150602081019050614e29565b838801955050505b50505092915050565b6000614e6660098361575b565b9150614e7182615c1f565b602082019050919050565b6000614e89600e8361575b565b9150614e9482615c48565b602082019050919050565b6000614eac600b8361575b565b9150614eb782615c71565b602082019050919050565b6000614ecf60098361576c565b9150614eda82615c9a565b600982019050919050565b6000614ef260118361575b565b9150614efd82615cc3565b602082019050919050565b6000614f15600b8361576c565b9150614f2082615cec565b600b82019050919050565b6000614f3860058361576c565b9150614f4382615d15565b600582019050919050565b60006080830160008301518482036000860152614f6b8282614d37565b91505060208301518482036020860152614f858282614d37565b9150506040830151614f9a60408601826151a1565b506060830151614fad60608601826151a1565b508091505092915050565b6000610120830160008301518482036000860152614fd68282614d37565b9150506020830151614feb6020860182614b7e565b50604083015184820360408601526150038282614d37565b915050606083015161501860608601826151a1565b50608083015161502b60808601826151a1565b5060a083015184820360a08601526150438282614d37565b91505060c083015184820360c086015261505d8282614d37565b91505060e083015161507260e08601826151a1565b5061010083015184820361010086015261508c8282614d37565b9150508091505092915050565b60006080830160008301516150b16000860182614b9c565b50602083015184820360208601526150c98282614d37565b915050604083015184820360408601526150e38282614d37565b915050606083015184820360608601526150fd8282614d37565b9150508091505092915050565b600060c08301600083015184820360008601526151278282614d37565b915050602083015184820360208601526151418282614d37565b915050604083015161515660408601826151a1565b506060830151848203606086015261516e8282614d37565b91505060808301516151836080860182614d19565b5060a083015161519660a0860182614d19565b508091505092915050565b6151aa81615a4d565b82525050565b6151b981615a4d565b82525050565b60006151cb8284614da9565b915081905092915050565b60006151e28284614dda565b915081905092915050565b60006151f882614ec2565b9150819050919050565b600061520d82614f08565b9150819050919050565b600061522282614f2b565b9150819050919050565b60006080820190506152416000830187614bab565b81810360208301526152538186614d70565b905081810360408301526152678185614d70565b9050818103606083015261527b8184614d70565b905095945050505050565b600060208201905081810360008301526152a08184614bba565b905092915050565b600060208201905081810360008301526152c28184614c2f565b905092915050565b600060208201905081810360008301526152e48184614ca4565b905092915050565b600060208201905081810360008301526153068184614d70565b905092915050565b600060e0820190508181036000830152615328818a614d70565b90506153376020830189614b8d565b81810360408301526153498188614d70565b905061535860608301876151b0565b818103608083015261536a8186614d70565b905061537960a08301856151b0565b61538660c08301846151b0565b98975050505050505050565b60006101208201905081810360008301526153ad818c614d70565b90506153bc602083018b614b8d565b81810360408301526153ce818a614d70565b90506153dd60608301896151b0565b6153ea60808301886151b0565b81810360a08301526153fc8187614d70565b905081810360c08301526154108186614d70565b905061541f60e08301856151b0565b8181036101008301526154328184614d70565b90509a9950505050505050505050565b600060a082019050818103600083015261545c8188614d70565b905081810360208301526154708187614d70565b905061547f6040830186614bab565b61548c60608301856151b0565b61549960808301846151b0565b9695505050505050565b600060c08201905081810360008301526154bd8189614d70565b905081810360208301526154d18188614d70565b90506154e060408301876151b0565b81810360608301526154f28186614d70565b90506155016080830185614d28565b61550e60a0830184614d28565b979650505050505050565b600060808201905081810360008301526155338187614d70565b905081810360208301526155478186614d70565b905061555660408301856151b0565b61556360608301846151b0565b95945050505050565b6000602082019050818103600083015261558581614e59565b9050919050565b600060208201905081810360008301526155a581614e7c565b9050919050565b600060208201905081810360008301526155c581614e9f565b9050919050565b600060208201905081810360008301526155e581614ee5565b9050919050565b600060208201905081810360008301526156068184615099565b905092915050565b600060208201905061562360008301846151b0565b92915050565b6000615633615644565b905061563f8282615acb565b919050565b6000604051905090565b600067ffffffffffffffff82111561566957615668615bd2565b5b61567282615c01565b9050602081019050919050565b6000819050602082019050919050565b6000819050602082019050919050565b6000819050602082019050919050565b60008190508160005260206000209050919050565b600081519050919050565b600081519050919050565b600081519050919050565b600081519050919050565b6000602082019050919050565b6000602082019050919050565b6000602082019050919050565b600082825260208201905092915050565b600082825260208201905092915050565b600082825260208201905092915050565b600082825260208201905092915050565b600082825260208201905092915050565b600081905092915050565b600061578282615a4d565b915061578d83615a4d565b9250827fffffffffffffffffffffffffffffffffffffffffffffffffffffffffffffffff038211156157c2576157c1615b45565b5b828201905092915050565b60006157d882615a4d565b91506157e383615a4d565b9250826157f3576157f2615b74565b5b828204905092915050565b6000808291508390505b60018511156158485780860481111561582457615823615b45565b5b60018516156158335780820291505b808102905061584185615c12565b9450615808565b94509492505050565b600061585c82615a4d565b915061586783615a4d565b92506158947fffffffffffffffffffffffffffffffffffffffffffffffffffffffffffffffff848461589c565b905092915050565b6000826158ac5760019050615968565b816158ba5760009050615968565b81600181146158d057600281146158da57615909565b6001915050615968565b60ff8411156158ec576158eb615b45565b5b8360020a91508482111561590357615902615b45565b5b50615968565b5060208310610133831016604e8410600b841016171561593e5782820a90508381111561593957615938615b45565b5b615968565b61594b84848460016157fe565b9250905081840481111561596257615961615b45565b5b81810290505b9392505050565b600061597a82615a4d565b915061598583615a4d565b9250817fffffffffffffffffffffffffffffffffffffffffffffffffffffffffffffffff04831182151516156159be576159bd615b45565b5b828202905092915050565b60006159d482615a4d565b91506159df83615a4d565b9250828210156159f2576159f1615b45565b5b828203905092915050565b6000615a0882615a2d565b9050919050565b6000615a1a82615a2d565b9050919050565b60008115159050919050565b600073ffffffffffffffffffffffffffffffffffffffff82169050919050565b6000819050919050565b82818337600083830152505050565b60005b83811015615a84578082015181840152602081019050615a69565b83811115615a93576000848401525b50505050565b60006002820490506001821680615ab157607f821691505b60208210811415615ac557615ac4615ba3565b5b50919050565b615ad482615c01565b810181811067ffffffffffffffff82111715615af357615af2615bd2565b5b80604052505050565b6000615b0782615a4d565b91507fffffffffffffffffffffffffffffffffffffffffffffffffffffffffffffffff821415615b3a57615b39615b45565b5b600182019050919050565b7f4e487b7100000000000000000000000000000000000000000000000000000000600052601160045260246000fd5b7f4e487b7100000000000000000000000000000000000000000000000000000000600052601260045260246000fd5b7f4e487b7100000000000000000000000000000000000000000000000000000000600052602260045260246000fd5b7f4e487b7100000000000000000000000000000000000000000000000000000000600052604160045260246000fd5b6000601f19601f8301169050919050565b60008160011c9050919050565b7f596f7520766f7465640000000000000000000000000000000000000000000000600082015250565b7f557365726e616d652074616b656e000000000000000000000000000000000000600082015250565b7f5573657220657869737473000000000000000000000000000000000000000000600082015250565b7f76616c696461746f720000000000000000000000000000000000000000000000600082015250565b7f596f7520646964276e7420646f6e617465000000000000000000000000000000600082015250565b7f62656e6566696369617279000000000000000000000000000000000000000000600082015250565b7f646f6e6f72000000000000000000000000000000000000000000000000000000600082015250565b615d47816159fd565b8114615d5257600080fd5b50565b615d5e81615a4d565b8114615d6957600080fd5b5056fea2646970667358221220eadf7dcc0da744f82e8519574902ea536ae8fe6d7dd54a1b987c3d2d8552b51764736f6c63430008040033",
  "linkReferences": {},
  "deployedLinkReferences": {}
}